:020000040000FA
:06000000E3EF0EF0120018
:0A0006000100FA1D00006000000078
:0400100022000000CA
:0C001400000000000000000080808080E0
:1000200000000000000000000000000000000000D0
:100030008000008000008000000000000000000040
:1000400000000000000000000000000000000000B0
:1000500000000000000000000000000000000000A0
:100060000000000000000000000000000000000090
:100070000000000000000000000000000000000080
:100080000000000000000000000000000000000070
:10009000000000000000000000003E4180808080E1
:1000A000413E0000D894A46C00007884844C008801
:1000B000FC8081FF8081FF80007884848478000048
:1000C000D894A46C00007884844C000078848484E4
:1000D000780008FC488484780000789494580000E4
:1000E000000000D894A46C00041C6480740C04000C
:1000F000D894A46C0004FF8440007894945800883D
:10010000FC8804FC8804F880000000000000000067
:1001100000000000000000000000000000000000DF
:1001200000000000000000000000000000000000CF
:1001300000000000000000000000000000000000BF
:1001400000000000000000000000000000000000AF
:100150000000040704000000000000000000000090
:100160000000000000000000040406010000000080
:10017000000000000000000000000000000000007F
:10018000000000000000000000000000000000006F
:10019000000000000000000000000000000000005F
:1001A000000000000000000000000000000000004F
:1001B000000000000000000000000000000000003F
:1001C0000000000080F0F8181C0E0E1C1878F0C01B
:1001D000800000000000000000000000000000009F
:1001E000000080F0F8181C0C0E0E1C18F8F08000AF
:1001F00000000000000000000000000000000000FF
:1002000000000000000000000000000000000000EE
:1002100000000000000000000000000000000000DE
:1002200000000000000000000000000000000000CE
:1002300000000000000000000000000000000000BE
:10024000000000F8FF0F0000000000000000000F99
:10025000FFF80000000000000000000000000000A7
:1002600000F8FF0F0000000000000000000FFFF882
:10027000000000000000000000000000000000007E
:10028000000000000000000000000000000000006E
:10029000000000000000000000000000000000005E
:1002A000000000000000000000000000080008003E
:1002B00008001CFCF880080008000800080008007E
:1002C00008E0FF3F090008000800080008000800D7
:1002D000093FFFE00800080008000800080008E0E7
:1002E000FF3F090008000800080008000800090F87
:1002F0000F000800080008000000000000000000D7
:1003000000000000000000000000000000000000ED
:1003100000000000000000000000000000000000DD
:1003200000000000000000000000000000000000CD
:1003300000000000073FFCE000000000000080C05B
:10034000FC7F07000000000000000000000000002B
:100350000000073FFCE000000000000000C0FC7F40
:100360000700000000000000000000000000000086
:10037000000000000000000000000000000000007D
:10038000000000000000000000000000000000006D
:10039000000000000000000000000000000000005D
:1003A000000000000000000000000000000000004D
:1003B00000000000000001070F1C18181C0F0701A7
:1003C000000000000000000000000000000000002D
:1003D0000000000001070F1C18181C0C0F0701007B
:1003E000000000000000000000000000000000000D
:1003F00000000000000000000000000000000000FD
:1004000000000000000000000000000000000000EC
:1004100000000000000000005C000C000C7C287C48
:100420007C447C241048285408000C0038440044C4
:1004300038002010081038108040001010100040C4
:1004400000201008384438007C0064544844542884
:100450001C107C4C542438542004740C2854280854
:100460005438005000805000102844282828442880
:1004700010045408384C5C7814787C542838444470
:100480007C44387C54447C14043844347C107C0014
:100490007C0020403C7C106C7C40407C087C7C04D0
:1004A0007C7C447C7C14083844787C146848542450
:1004B000047C047C407C3C403C7C207C6C106C1CAC
:1004C000601C64544C7C4400081020447C000804E8
:1004D0000880808004080000000000000000000088
:1004E000000000000000000000000000000000000C
:1004F00000000000000000000000000000000000FC
:1005000000000000000000000000000000000000EB
:1005100000000000000000000000000000000000DB
:1005200000000000000000000000000000000000CB
:1005300000000000000000000000000000000000BB
:1005400000000000000000000000000000000000AB
:10055000000000000000000000000000000000009B
:10056000000000000000000000000000000000008B
:10057000000000000000000000000000000000007B
:10058000000000000000000000000000000000006B
:10059000000000000000000000000000000000005B
:1005A000000000000000000000000000000000004B
:1005B000000000000000000000000000000000003B
:1005C000000000000000000000000000000000002B
:1005D000000000000000000000000000000000001B
:1005E000065F5F0600000000070700070700001411
:1005F0007F7F147F7F1400242E6B6B3A120000461D
:100600006630180C666200307A4F5D377A48000415
:1006100007030000000000001C3E634100000000D2
:1006200041633E1C000000082A3E1C1C3E2A0808AC
:10063000083E3E080800000080E06000000000085E
:100640000808080808000000006060000000006062
:1006500030180C060301003E7F71594D7F3E00406B
:10066000427F7F40400000627359496F660000225C
:100670006349497F360000181C16537F7F500027BE
:100680006745457D3900003C7E4B497930000003C9
:100690000371790F070000367F49497F3600000655
:1006A0004F49693F1E000000006666000000000020
:1006B00080E66600000000081C366341000000244C
:1006C00024242424240000004163361C0800000276
:1006D0000351590F0600003E7F415D5D1F1E007CE7
:1006E0007E13137E7C0000417F7F49497F36001CCA
:1006F0003E634141632200417F7F41633E1C0041D4
:100700007F7F495D416300417F7F491D0103001CDC
:100710003E6341517372007F7F08087F7F000000B5
:10072000417F7F41000000307040417F3F01004128
:100730007F7F081C776300417F7F41406070007FAE
:100740007F0E1C0E7F7F007F7F060C187F7F001CB2
:100750003E6341633E1C00417F7F49090F06001E36
:100760003F21717F5E0000417F7F09197F6600266F
:100770006F4D597332000003417F7F410300007FBA
:100780007F40407F7F00001F3F60603F1F00007F71
:100790007F3018307F7F0043673C183C6743000779
:1007A0004F78784F070000476371594D6773000019
:1007B0007F7F41410000000103060C1830600000FB
:1007C00041417F7F000000080C0603060C080080F2
:1007D000808080808080800000030704000000206B
:1007E0007454543C784000417F3F4848783000388A
:1007F0007C44446C280000307848493F7F400038F2
:100800007C54545C180000487E7F49030200009825
:10081000BCA4A4F87C0400417F7F08047C7800001D
:10082000447D7D4000000060E08080FD7D0000414F
:100830007F7F10386C440000417F7F400000007CC7
:100840007C18381C7C78007C7C04047C78000038A0
:100850007C44447C38000084FCF8A4243C18001834
:100860003C24A4F8FC8400447C784C041C18004808
:100870005C54547424000000043E7F442400003C77
:100880007C40403C7C40001C3C60603C1C00003CC8
:100890007C7038707C3C00446C3810386C44009C90
:1008A000BCA0A0FC7C00004C64745C4C640000089C
:1008B000083E7741410000000000777700000041CA
:1008C00041773E08080000020301030203010070A3
:1008D000784C464C7870000E9F91B1FB4A00003A6C
:1008E0007A40407A7A4000387C54555D1900000205
:1008F000237555557D7B42217554547D79400021E7
:100900007555547C784000207457577C7840001807
:100910003CA4A4E4400000023B7D55555D1B023918
:100920007D54545D190000397D55545C1800000158
:10093000457C7C410100000203457D7D43020001AE
:10094000457D7C40000000797D1612167D7900708F
:10095000782B2B78700000447C7C55554500002096
:100960007454547C7C54547C7E0B097F7F49003244
:100970007B49497B320000327A48487A32000032A3
:100980007A4A48783000003A7B41417B7A40003A0D
:100990007A4240787840009ABAA0A0FA7A00000122
:1009A000193C66663C19013D7D40407D3D000018C4
:1009B0003C24E7E7242400687E7F49436620002B1F
:1009C0002FFCFC2F2B0000FFFF09092FF6F8A04099
:1009D000C088FE7F090302207454557D79400000D1
:1009E000447D7D410000003078484A7A320000386A
:1009F0007840427A7A40007A7A0A0A7A7000007D5A
:100A00007D19317D7D000000262F292F2F28000021
:100A1000262F292F26000030784D45602000003811
:100A20003808080808000008080808383800004F8F
:100A30006F3018CCEEBB914F6F30186C76FBF9001D
:100A400000007B7B000000081C3622081C36222296
:100A5000361C0822361C08AA005500AA005500AA18
:100A600055AA55AA55AA55DDFFAA77DDAAFF77003A
:100A70000000FFFF000000101010FFFF0000001436
:100A80001414FFFF0000001010FFFF00FFFF001014
:100A900010F0F010F0F000141414FCFC000000142E
:100AA00014F7F700FFFF000000FFFF00FFFF001436
:100AB00014F4F404FCFC0014141717101F1F00108A
:100AC000101F1F101F1F001414141F1F0000001000
:100AD0001010F0F00000000000001F1F1010101098
:100AE00010101F1F101010101010F0F01010100038
:100AF0000000FFFF10101010101010101010101038
:100B00001010FFFF101010000000FFFF141414005D
:100B100000FFFF00FFFF1000001F1F101717140039
:100B200000FCFC04F4F41414141717101717141411
:100B300014F4F404F4F4140000FFFF00F7F71414A5
:100B4000141414141414141414F7F700F7F71414ED
:100B50001414171714141410101F1F101F1F101433
:100B60001414F4F41414141010F0F010F0F0100039
:100B7000001F1F101F1F100000001F1F141414005F
:100B80000000FCFC1414140000F0F010F0F0101041
:100B900010FFFF10FFFF10141414FFFF14141410A3
:100BA00010101F1F000000000000F0F0101010FFD8
:100BB000FFFFFFFFFFFFFFF0F0F0F0F0F0F0F0FFBD
:100BC000FFFFFF0000000000000000FFFFFFFF0F1D
:100BD0000F0F0F0F0F0F0F387C446C386C4400FC64
:100BE000FE2A2A3E1400007E7E0202060600000253
:100BF0007E7E027E7E020063775D4963630000387B
:100C00007C447C3C04040080FE7E20203E1E0004C8
:100C100006027E7C06020099BDE7E7BD9900001C34
:100C20003E6B496B3E1C004C7E7301737E4C003062
:100C3000784A4F7D390000183C243C3C243C1898ED
:100C4000FC643C3E273D180000000000000000004E
:100C50000000000000000000000000000000000094
:100C60000000000000000000000000000000000084
:100C70000000000000000000000000000000000074
:100C80000000000000000000000000000000000064
:100C90000000000000000000000000000000000054
:100CA0000000000000000000000000000000000044
:100CB0000000000000000000000000000000000034
:100CC0000000000000000000000000000000000024
:070CD000000000000000001D
:080CD80075EC0AF0100EE12694
:100CE000500EDF6EDE52490EDD6E430EF36E020EC5
:100CF000F3CFDBFF030EDB6AD950040FE96EDACFC6
:100D0000EAFFEE6AEE6AEE6AEE6A520EF36E080EC3
:100D1000F3CFDBFF450EF36E090EF3CFDBFF560E6C
:100D2000F36E0A0EF3CFDBFF450EF36E0B0EF3CF1F
:100D3000DBFF4E0EF36E0C0EF3CFDBFF470EF36EB0
:100D40000D0EF3CFDBFF450E96DB010EE66E83EC56
:100D50000BF0E552010E88DB230ECCDB020E84DBA8
:100D6000430EC8DB040EE66E73EC0DF0E552050E83
:100D7000E66E230EE66EB2EC0BF0E552E552010E84
:100D8000E66EE66ED950080F25DB320E51DBE66ABF
:100D900073EC0DF0E552E66A83EC0BF0E552020EBF
:100DA00047DB100EE15C02E2E16AE5523CD39DDBD9
:100DB000290EE126420EDF6EDE52790EDD6E020E46
:100DC000DB6A490EF36E030E5DDB040EF3CFDBFF2F
:100DD000730EF36E050E5BDB060E5EDB070EF3CFC4
:100DE000DBFF650EF36E080EF3CFDBFF090EDB6A47
:100DF0004C0EF36E0A0EF3CFDBFF6F0EF36E0B0E8D
:100E0000F3CFDBFF750EF36E0C0E4BDB0D0EF3CF45
:100E1000DBFF730E30DB540EF36E100E33DB110E5E
:100E2000F3CFDBFF6F0EF36E120EF3CFDBFF6D0E11
:100E3000F36E130E2CDB140EF3CFDBFF730EF36E89
:100E4000150EF3CFDBFF160EDB6A560EF36E170E90
:100E500028DB180E21DB190EF3CFDBFF630EF36ED8
:100E60001A0EF3CFDBFF650EF36E1B0E15DB1C0EA7
:100E7000F3CFDBFF740EF36E1D0EF3CFDBFF1E0E00
:100E8000DB6A260EF36E1F0EF3CFDBFF200EF36E30
:100E9000DB6E540EF36E210EF5DA220E02DB230E0A
:100EA000F3CFDBFF620EF36E240EF1DA250EF3CFE3
:100EB000DBFF750EF36E260EF3CFDBFF740EF36EC1
:100EC000270EF3CFDBFF280EDB6A010EE66E83EC04
:100ED0000BF0E552E66A360E74DA98DA010EFBDAA8
:100EE000030F78DA020EE66E270E6BDAD9500A0F7E
:100EF00071DA040EF0DA100F6DDA060EE66E3A0EB5
:100F000060DAD950170F66DA070EE5DA1F0F62DADA
:100F1000C80E8EDAE66A83EC0BF0E552320E88DA00
:100F2000290EE15C02E2E16AE5527DD274DADFCF9C
:100F300002F0040EE76E0218E8AE02D0E73402D0E9
:100F4000E750025C12E2E66A7DDAE0DA1D0FB5DAFC
:100F5000F70FACDA1D0FB1DA0C0FA8DA140F2DDA87
:100F6000D5DA180F2ADAA5DAE2D7DF6ADFCF02F086
:100F7000050EE76E0218E8AE02D0E73402D0E75063
:100F8000025C10E2E66AFD0EDB28DF24E66EFE0E50
:100F9000DB040CDAE66AFD0EDB288FDA040F06DAD2
:100FA000DF2AE4D7DF6ADFCF02F0040EE76E021813
:100FB000E8AE02D0E73402D0E750025C17E2010E3F
:100FC000DB6ADBCF02F00C0EE76E0218E8AE02D04F
:100FD000E73402D0E750025C07E276DA060FE5520A
:100FE000E724EBD97DDAEDD7DF2ADDD7DF6A30DA07
:100FF000E8AE02D0E73402D0E750025C13E2EFD94A
:101000000F0FDBD9FD0F82DA0F0FD7D9040F7EDA6D
:10101000120F53DAF90F4ADA120F4FDA0A0FC6D954
:10102000DF2AE5D7DF6ADFCF02F0020EE76E021893
:10103000E8AE02D0E73402D0E750025C2AE2CFD912
:10104000100FBBD9FB0F62DA100FB7D9070F5EDAAA
:10105000150F33DAFA0F2ADA150F2FDA090F26DA0D
:10106000170F2BDAFB0F22DA170F27DA080F1EDA19
:101070001B0F23DAF80F1ADA1B0F1FDA0B0F16DA21
:10108000230F9BD9FA0F42DA230F97D9080F11DAF1
:10109000CAD7DF6ADFCF02F00C0EE76E0218E8AEA7
:1010A00002D0E73402D0E750025C06E298D9240F60
:1010B00084D9FC0FFED9EED7DF6ADFCF02F0080E2D
:1010C000E76E0218E8AE02D0E73402D0E750025CC7
:1010D00014E2010EDB6AC2D9E8AE02D0E73402D0D6
:1010E000E750025C08E2F0D91E0FE552E72465D90B
:1010F000FE0FF6D9F0D7DF2AE0D7DF6ADFCF02F0A4
:10110000060EE76E0218E8AE02D0E73402D0E750D0
:10111000025C19E2010EDB6ADBCF02F0030EE76E20
:101120000218E8AE02D0E73402D0E750025C09E2D0
:10113000CBD9150FE552E724E66EFE0EDB04D0D9BD
:10114000EBD7DF2ADBD74BD9110F37D9FA0FAED93E
:10115000110FDFD9ABD9190F30D9FA0FA7D9190F51
:10116000D8D9A4D91A0F29D9F90FA0D91A0F25D97E
:101170000A0F9CD9210F21D9F80F98D9210F1DD919
:101180000B0F94D9220F19D9F90F90D9220F15D925
:101190000A0F0CD9020EE15C02E2E16AE55243D18A
:1011A0003AD956D9E8AE02D0E73402D0E750025C13
:1011B00007E2010EE66E46D90B0F82D9ADD9F1D701
:1011C000DF6ADFCF02F0070EE76E0218E8AE02D04A
:1011D000E73402D0E750025C0AE2010EE66EFD0E33
:1011E000DB2897D96DD9080F94D963D9EAD7DF6A7C
:1011F000DFCF02F00D0EE76E0218E8AE02D0E73442
:1012000002D0E750025C07E218D9020FD6D8060FC9
:1012100057D987D9EDD7DF6ADFCF02F0130EE76E1B
:101220000218E8AE02D0E73402D0E750025C07E2D1
:1012300004D9030FC2D8030F43D978D9EDD7DF6A99
:10124000DFCF02F0180EE76E0218E8AE02D0E734E6
:1012500002D0E750025C10E2010EDB6AFFD8E8AE74
:1012600002D0E73402D0E750025C04E2010EE66EE1
:10127000BAD8F4D7DF2AE4D7020EE15C02E2E16AD1
:10128000E552D1D0C8D8E4D8E8AE02D0E73402D0D5
:10129000E750025C06E2E66AD5D80B0F37D93CD995
:1012A000F2D7DF6ADFCF02F0070EE76E0218E8AE72
:1012B00002D0E73402D0E750025C09E2E66AFD0E94
:1012C000DB2827D923D9080F24D9F3D8EBD7DF6A35
:1012D000DFCF02F00D0EE76E0218E8AE02D0E73461
:1012E00002D0E750025C07E27AD8020F66D8060FF8
:1012F0000DD917D9EDD7DF6ADFCF02F0130EE76EF5
:101300000218E8AE02D0E73402D0E750025C07E2F0
:1013100066D8030F52D8030FF9D808D9EDD7DF6A82
:10132000DFCF02F0180EE76E0218E8AE02D0E73405
:1013300002D0E750025C10E2010EDB6A8FD8E8AE03
:1013400002D0E73402D0E750025C04E2E66A010E04
:101350004AD8F4D7DF2AE4D7020EE15C02E2E16A60
:10136000E55261D0C2D8E652DF6ADFCF02F03C0E10
:10137000E76E0218E8AE02D0E73402D0E750025C14
:1013800010E2DFCFE6FF360EE66E0ADFE552E552E9
:10139000DFCFE6FF360EE66E75DFE552E552DF2A57
:1013A000E4D7E552E552E7CFD9FF1200E66E39ECFB
:1013B0000BF0E552E552E5521200E66EFE0EDB50F0
:1013C0001200E66EB2EC0BF0E552E552E66A010E51
:1013D000E66E1200E66E000EDA20E66E90D0E66A47
:1013E000FD0EDB501200DBCFE6FFFD0EDB50040FDD
:1013F000E552E724E66EFE0EDBCFE6FF39EC0BF09C
:10140000E552E552E552010EDB2A1200D9CFE6FF84
:10141000DACFE6FF74D069D8020EE126DF6A010E4A
:10142000DB6ADF6A1200E16EE552E7CFD9FF1200F6
:10143000E66EBCEC0EF0E5521200010EE66EFD0EFB
:10144000DB501200FD0EDBCFE6FFFE0EDB5012007C
:10145000DFCF02F0030EE76E02181200DBCF02F0BE
:10146000020EE76E02181200E66E73EC0DF0E55204
:10147000030EE66E1200F36E0E0EF3CFDBFF0F0EBF
:10148000DB6A1200F3CFDBFF680EF36E1200F3CFBE
:10149000DBFF610EF36E1200F3CFDBFF6E0EF36E17
:1014A0001200F3CFDBFF690EF36E12007FDFEFEF68
:1014B00009F0DF247BDFDF2A1200DF24DDEF09F0F3
:1014C000DF2474DF1DEF0AF0E66A010EDBCFE6FFD2
:1014D000FD0EDB501200E66E230E73DFD9501200B2
:1014E000DF2464DF010EDB2A1200D9CFE6FFE1CF53
:1014F000D9FF120066DF8ADF140E18EF0AF045EC00
:101500000CF0E552E552E552E5521200DF2456EFA9
:101510000AF053DF090F1200090F4FDF0B0F59EFCD
:101520000AF0070F4ADF060F59EF0AF0060F45DFF2
:06153000030F59EF0AF061
:0A153600D9CFE6FFE1CFD9FF030E85
:10154000E126836A8A9A0F0EE66EF1EC0EF0E55200
:101550008A8A8A988A908A928A940000C00EE66EDF
:10156000E66A4ED8E552E552C00EE66E010EE66E12
:1015700047D8E552E552400EE66EE66A41D8E5529C
:10158000E552400EE66E010EE66E3AD8E552E5529F
:10159000B80EE66EE66A34D8E552E552B80EE66E4D
:1015A000010EE66E2DD8E552E552FE0EDB040EE18B
:1015B0003F0EE66EE66A24D8E552E5523F0EE66E2F
:1015C000010EE66E1DD8E552E5520DD03E0EE66ED8
:1015D000E66A16D8E552E5523E0EE66E010EE66E5C
:1015E0000FD8E552E552E66A8ED8E552030EE15C6B
:1015F00002E2E16AE552E16EE552E7CFD9FF12005F
:10160000D9CFE6FFE1CFD9FFFE0EDB5003E08A80A1
:101610008A9202D08A928A82956A8A96FD0EDB505F
:101620008C6E8A8800008A9800008A908A92E5521F
:10163000E7CFD9FF1200D9CFE6FFE1CFD9FFE652BD
:10164000FE0EDB5003E08A808A9202D08A928A8260
:1016500095688A868A8800008350DF6E8A98000029
:101660008A908A92DF5000D0E552E552E7CFD9FF49
:1016700012009BD9020EE126010EDB6AFE0EDB5042
:101680003F0805E2400E85D9DE52010EDD6E8A94D8
:10169000FE0EDB9EDB8CDBCFE6FFDFD9FD0EDB50E1
:1016A000F80BE842E842E842BF0BB809E66ED5D92C
:1016B0008A8494D9C0DFE55291D9BDDFE552DF6E4F
:1016C0008A94FE0EDBCFE6FFC8D9FC0EDB5008E0A3
:1016D00089D904E0E846FE0B0206FCE1DF1008D0E1
:1016E00081D904E0E846FE0B0206FCE1E81CDF14A9
:1016F000DF6E8A84DFCFE6FFB0D9020EE15C02E242
:10170000E16AE55250D151D9020EE126DF6A080E96
:10171000DF5C22E28A94400EA9D9400E99D9B80E16
:10172000DF10A4D9B80EDF1093D98A84010EDB6ACA
:10173000400EF36E010E64D90DE2FE0EDB50FF0D7C
:10174000F35094D9FE0EDB50FF0DF35081D9010EFA
:10175000DB2AEED7DF2ADBD7020EE15C02E2E16A88
:10176000E55221D122D9E652DF6AFD0EDB5007088F
:1017700002E3000E01D0010E026EFE0EDB507F0868
:1017800002E3000E01D0010E021018E1FE0EDBCFC5
:1017900090F0FD0EDBCF91F0FE0EDB503F0804E22F
:1017A000400EF7D8010EDF6E8A94FE0EDB50400922
:1017B00045D9FD0EDB50B80941D98A84E5525AD18A
:1017C000F4D8050E16D904E10001906B912B28D0B6
:1017D000000190513F0802E2F5D803D0010E90C0FD
:1017E000DBFFFE0EDB50080D030EF3CFDBFF040E14
:1017F000F4CFDBFFDF6A080EDF5C0FE2010EDB5087
:101800003F0801E202D9FD0EDB5003E0B0D8F550ED
:1018100002D0ADD8F51C17D9EED7080E00019027DD
:10182000050EE15C02E2E16AE552BDD0BED8030ECE
:10183000E0D804E10001906B912B21D00001905180
:101840003F0802E2BFD803D0010E90C0DBFF200E9C
:10185000A0D8DF6A030EDF5C0FE2010EDB503F0809
:1018600001E2D3D8FD0EDB5003E06DD8F55002D075
:101870006AD8F51CE8D8EED7050E00019027030EB4
:10188000E15C02E2E16AE5528ED08FD893D810E095
:10189000FC0EDB5003E0E4D893DF02D0E1D8C6DFD2
:1018A000E552E552FD0EDB2AFE0EF0E3DB2AEED711
:1018B000E1D07BD8050EE126010EDB6A020EDB6A61
:1018C000030EDB6A080EF36E030E9AD830E2DF6A6D
:1018D000DF50010829E38A94400EB0D8030EDB5094
:1018E000B809ACD88A84040EDB6A400EF36E040E8D
:1018F00087D818E2010EDBCFF6FF020EDBCFF7FF31
:10190000140EF626000EF7220800F55097D8D9508D
:10191000010FE96EDACFEAFFEE2A000EED22040E87
:10192000DB2AE3D7DF2AD4D7030EDB2ACBD78A9072
:101930008A92050EE15C02E2E16AE55234D060DE93
:10194000E552E5521200FE0EDB50030DF3CF02F01C
:10195000F4CF03F0140E0226040E0322DF500F0111
:101960000224F66E000E0320F76E08001200DF500E
:10197000E76E030EDBCFF6FF040EDBCFF7FFE75079
:10198000F626000EF722D70EF626040EF7220800E0
:101990001200026EFE0EDBCFE7FF0250E75EFE0E86
:1019A000E7CFDBFF1200E16E65D0D9CFE6FFE1CFD4
:1019B000D9FF1200FD0EDBCFE9FFFE0EDBCFEAFF01
:1019C000EF501200010EF36E020EF3CFDBFF400E5C
:1019D000905DE76E010EE7CFDBFF1200010EDBCF5B
:1019E000E6FF1200FD0EDB50070B026E010E0252E5
:1019F0001200E126020EDB6AFE0EDB500A0812001E
:101A0000DBCFF4FFF350F45C1200400E026E010EC7
:101A1000DBCFE7FF0250E75E010EE7CFDBFFF36E9F
:101A2000020EF3CFDBFF8A94010EDB50400926D86B
:101A3000B80E0001911122D88A841200E66EDFCF21
:101A4000E6FF9FEF0CF01AD8010EDB2ADF2A120006
:101A5000E66E010EE66E9FEF0CF0C0DF9FEF0CF01C
:101A6000FB0EDBCFE6FFA6DFE66E1200E66EE66A4F
:101A70009FEF0CF0E552E7CFD9FF1200E66E020EA1
:081A8000DBCFE6FF9FEF0CF045
:081A8800D9CFE6FFE1CFD9FF41
:101A9000E652DF6A110EDF5C21E2DF50EA6A600F76
:101AA000E96E000EEA22EF50E66E1DD8E552DF50D7
:101AB000EA6A710FE96E000EEA22EF50E66EBCECA6
:101AC0000EF0E552F90E57D8BE6A0C0EBD6E020E2E
:101AD000E66EBCEC0EF0E552DF2ADCD7E552E552AB
:101AE000E7CFD9FF1200D9CFE6FFE1CFD9FF949419
:101AF000FE0EDB503BE0090A32E0080A2AE0030A46
:101B000020E0060A1AE00C0A12E00D0A0CE0090AAD
:101B100006E00A0A2CE17A0E2ED8740E17D06D0E4C
:101B20002AD8680E19D0650E26D8600E0FD0CC0EBC
:101B300022D8C20EBE6E2C0E17D0B50E1CD8AC0E1D
:101B400005D0280EBB6E070EBA6E260EBE6E3C0E7A
:101B50000BD0990E10D8920EBE6E1C0E05D0880EBA
:101B60000AD8820EBE6E0C0EBD6E01D09484E55272
:0E1B7000E7CFD9FF1200BB6E050EBA6E120051
:021B7E00D9CFBD
:101B8000E6FFE1CFD9FFFE0EDBA002D0E66A47D820
:101B9000FE0EDB50020BE8407F0B010803E1020E52
:101BA000E66E3DD8FE0EDB50040BE840E8403F0BEC
:101BB000010803E1040EE66E32D8FE0EDB50080B7E
:101BC000E840E840E8401F0B010803E1060EE66E1E
:101BD00026D8E552E7CFD9FF1200D9CFE6FFE1CFF3
:101BE000D9FFE66A21D8020EE66E1ED8040EE66E14
:101BF0001BD8060EE66E18D8E552E7CFD9FF1200C3
:101C0000DBCFE6FFB2EC0BF0E552E552010EE66EDB
:101C10001200E66EE0EC0BF0E552E5521200FD0E0C
:101C2000EFDF4F0E09EF0EF0FE0EEADF200E09EF98
:021C30000EF0B4
:0E1C3200060EF66E000EF76E000EF86E000144
:101C40000900F550876F0900F550886F03E1876739
:101C500001D03DD00900F550826F0900F550836F27
:101C60000900F550846F09000900F550E96E09007C
:101C7000F550EA6E090009000900F550856F09006A
:101C8000F550866F09000900F6CF89F0F7CF8AF08A
:101C9000F8CF8BF082C0F6FF83C0F7FF84C0F8FF57
:101CA0000001855302E1865307E00900F550EE6E0E
:101CB0008507F8E28607F9D789C0F6FF8AC0F7FFE3
:101CC0008BC0F8FF00018707000E885BBFD71200AA
:101CD0000F0EC16E9280936A816A9568836AF90ECD
:101CE000946E966A010EE66E9BEC0AF0E55244ECA7
:101CF0000DF000018C6B8D6B080E8DAF02D0D8906B
:101D000003D08C5D000E8D59F2E28CC0E6FF6F0EA1
:101D1000E66EB2EC0BF0E552E552010EE66E7C0E7B
:101D2000E66EE0EC0BF0E552E55200018C2B000E64
:041D30008D23E2D746
:0C1D3400D9CFE6FFE1CFD9FFFD0EDBCFD9
:101D400002F0FE0EDBCFE6FF010EF36EFD0EDB5060
:101D500004E0D890F336E806FCE1F350E552E714CE
:101D600002C0E7FFE75204E0E8427F0BE706FCE130
:081D7000E552E7CFD9FF120094
:081D7800FF0EE350056EEF0EB3
:101D800001D0F30EE76EE72EC3EF0EF00C0E046EDB
:101D9000E76AE72EC9EF0EF0042EC8EF0EF0052E0D
:061DA000C1EF0EF012007D
:0A1DA600000EF36E00EE00F0060ED2
:101DB00001D81200EA6002D0EE6AFCD7F350E96065
:061DC0001200EE6AFCD7E0
:0A1DC60015EE00F025EE00F0F86ABB
:101DD000019C19EC0EF0FCEC0EF068EC0EF0FBD759
:021DE0001200EF
:0E1DE200FF0EE350E84E1200000000D000D0CB
:081DF00000D0E82EFAD7120022
:021DF8001200D7
:061DFA0006060C050202C2
:101E000001020404020104010109010C0408080C88
:0C1E10000408080C040404080C04080872
:00000001FF
